:020000040000FA
:10000000020003120218787FE4F6D8FD758114020D
:10001000004D0200E5E493A3F8E493A34003F680C7
:1000200001F208DFF48029E493A3F85407240CC8F4
:10003000C333C4540F4420C8834004F4568001469F
:10004000F6DFE4800B01020408102040809001E0FC
:10005000E47E019360BCA3FF543F30E509541FFECA
:10006000E493A360010ECF54C025E060A840B8E43B
:1000700093A3FAE493A3F8E493A3C8C582C8CAC5BE
:1000800083CAF0A3C8C582C8CAC583CADFE9DEE750
:1000900080BE8E128F138F828E83E493F5147401C9
:1000A00093F943D8407B02EBC395145034E5132BEE
:1000B000F582E43512F583E493FA43801FF452800D
:1000C000EA700F1201B12428FFE435F0FE1201316D
:1000D000800B1201B1FDACF0AF021201940B0B804A
:1000E000C653D8BF22120176E4F510FBA29333F574
:1000F00011E4FF120154E511600BE58A5403F51079
:100100006B60F7800505105310034380E0E510C4D1
:100110003354E0F45280E51025E02408F8E6FE08A8
:10012000E6FF1200927580FFAB107F011201548030
:10013000C0758B80758DFFC28FD28EEF4E601230EE
:100140008FFDEF1F70011E758B80758DFFC28F8034
:10015000EAC28E22AD07E4FCC3EC6480948A501599
:100160007F017E00120131A292E433B505030C80B9
:10017000E7E4FC80E3221201F512021F1201FC12D7
:1001800002031202231201CA1202111202271201E3
:10019000EB02020AEF90022A93F5FC43A502D291EA
:1001A0007F287E0012013153A5FDAF05AE04020188
:1001B00031EB2401FFE433FEE5132FF582E5123E17
:1001C000F583E493FFE98FF0A422AF885388AF75DD
:1001D0008DFF758B80EF5440FEEF54104E42882205
:1001E0000808024302C1031503570053F77F75DA6D
:1001F0004675FC01227597DE7597AD2275A50375CE
:10020000D50E2275E34075E2012253F77F75DB08B6
:1002100022758E0475891122438E0443881022753D
:10022000D4FF2275A94022C2DE2200F4E6D9CDC255
:10023000B7ACA39A9189817A736D66615B56514D13
:100240004944417E140A100A100B100D100D100BBA
:10025000100A1008100610061008100A100A1808D4
:100260000808200A100A100B100D100D100B100AB0
:100270001008100610061008100A100818060806C4
:1002800020081008100A10061008100A080B080AA7
:1002900010061008100A080B080A100810061008AB
:1002A0001001200A100A100B100D100D100B100A6F
:1002B0001008100610061008100A10081806080684
:1002C000205414082008100C100C100A100C1008F0
:1002D00010082008100C100C100A100C200C200C18
:1002E000100A1008100C100F100C100F200F100C1B
:1002F0001008100C100A20082008100C100C100A0E
:100300000808080C1008100C200C100A0808080C2B
:10031000100A1008204214061008100A10061006D1
:100320001008100A1006100A100B100D200A100BEE
:10033000100D200D0C0F040D080B080A1006100DEF
:100340000C0F040D080B080A100610061001100609
:100350002006100110062058140A100A100A100A6C
:100360001008100610061005100310031006100ADE
:10037000100F100F100F100F100D100B100B100A94
:1003800010081008100A100B100A100B100A100E9B
:10039000100B100A100A10081006100610051003A2
:0F03A0001005100510051005100610051003308C
:00000001FF
