:020000040000FA
:10000000020003120220787FE4F6D8FD75811C02FD
:10001000004D0200E5E493A3F8E493A34003F680C7
:1000200001F208DFF48029E493A3F85407240CC8F4
:10003000C333C4540F4420C8834004F4568001469F
:10004000F6DFE4800B01020408102040809001E0FC
:10005000E47E019360BCA3FF543F30E509541FFECA
:10006000E493A360010ECF54C025E060A840B8E43B
:1000700093A3FAE493A3F8E493A3C8C582C8CAC5BE
:1000800083CAF0A3C8C582C8CAC583CADFE9DEE750
:1000900080BE8E1A8F1B8F828E83E493F51C7401B1
:1000A00093F943D8407B02EBC3951C5034E51B2BDE
:1000B000F582E4351AF583E493FA43801FF4528005
:1000C000EA700F1201B12428FFE435F0FE1201316D
:1000D000800B1201B1FDACF0AF021201940B0B804A
:1000E000C653D8BF22120176E4F518FBA29333F56C
:1000F00019E4FF120154E519600BE58A5407F5185D
:100100006B60F7800505185318074380E0E518C4B5
:100110003354E0F45280E51825E02408F8E6FE08A0
:10012000E6FF1200927580FFAB187F011201548028
:10013000C0758B80758DFFC28FD28EEF4E601230EE
:100140008FFDEF1F70011E758B80758DFFC28F8034
:10015000EAC28E22AD07E4FCC3EC6480948A501599
:100160007F017E00120131A292E433B505030C80B9
:10017000E7E4FC80E3221201FD12022712020412BE
:10018000020B12022B1201CA12021912022F1201C3
:10019000F3020212EF90023293F5FC43A502D291D2
:1001A0007F287E0012013153A5FDAF05AE04020188
:1001B00031EB2401FFE433FEE51B2FF582E51A3E07
:1001C000F583E493FFE98FF0A422AF885388AF75DD
:1001D0008DFF758B80EF5440FEEF54104E42882205
:1001E0001008024B04B3045F03F503B702C9031DF3
:1001F000035F0053F77F75DA4675FC01227597DEC1
:100200007597AD2275A50375D50E2275E34075E28D
:10021000012253F77F75DB0822758E047589112240
:10022000438E044388102275D4FF2275A94022C250
:10023000DE2200F4E6D9CDC2B7ACA39A9189817AC7
:10024000736D66615B56514D4944417E140A100A34
:10025000100B100D100D100B100A100810061006D0
:100260001008100A100A18080808200A100A100BB3
:10027000100D100D100B100A1008100610061008B3
:10028000100A10081806080620081008100A1006A0
:100290001008100A080B080A10061008100A080BAC
:1002A000080A1008100610081001200A100A100B86
:1002B000100D100D100B100A100810061006100873
:1002C000100A100818060806205414082008100CFC
:1002D000100C100A100C100810082008100C100C3C
:1002E000100A100C200C200C100A1008100C100F13
:1002F000100C100F200F100C1008100C100A200802
:100300002008100C100C100A0808080C1008100C1B
:10031000200C100A0808080C100A100820421406C5
:100320001008100A100610061008100A1006100A0D
:10033000100B100D200A100B100D200D0C0F040DCA
:10034000080B080A1006100D0C0F040D080B080A04
:100350001006100610011006200610011006205885
:10036000140A100A100A100A1008100610061005C8
:10037000100310031006100A100F100F100F100FAB
:10038000100D100B100B100A10081008100A100B9B
:10039000100A100B100A100E100B100A100A100889
:1003A00010061006100510031005100510051005A5
:1003B000100610051003303E1408100A100C100827
:1003C000100A200A100C100D200D200C200C200803
:1003D000100A100C1008100A200A100C100D200F23
:1003E0002008400F200F100D100C200A100C200DBB
:1003F000200F200A406A140808080808080A08089C
:100400001003100808080808080A08081003100D4F
:10041000080C080A080C080D080C080A100D080C36
:10042000080A080C080D080C080A10080808080833
:10043000080A08081003100808080808080A08082D
:1004400010031008080808080808080A1008080817
:10045000080A080808080808080A100F100840547D
:10046000140D100D100F100C180D080F1011101195
:1004700010121011180F080D100F100D100C100D88
:100480003014101410141014181208111012101235
:10049000101210121811080F101110120811080F65
:1004A000080D081118120814101608120811100F60
:1004B000100D306612001000100310080C0804081C
:1004C000100A100C0C0C040C180C080A080C080D6F
:1004D0001007100A10081000080F080F0C0C041168
:1004E000180F080F0C0D040D180D080D0C0A040F41
:1004F000180D080D0C0C040C100310080C0804084F
:10050000100A100C0C0C040C180C080A080C080D2E
:090510001007100A100810001079
:00000001FF
